{
  "_format": "hh-sol-artifact-1",
  "contractName": "Greeting",
  "sourceName": "contracts/Greeting.sol",
  "abi": [
    {
      "inputs": [],
      "stateMutability": "payable",
      "type": "constructor"
    },
    {
      "anonymous": false,
      "inputs": [
        {
          "indexed": true,
          "internalType": "address",
          "name": "from",
          "type": "address"
        },
        {
          "indexed": false,
          "internalType": "uint256",
          "name": "timestamp",
          "type": "uint256"
        },
        {
          "indexed": false,
          "internalType": "string",
          "name": "message",
          "type": "string"
        }
      ],
      "name": "NewPost",
      "type": "event"
    },
    {
      "inputs": [],
      "name": "getAllPosts",
      "outputs": [
        {
          "components": [
            {
              "internalType": "address",
              "name": "posted",
              "type": "address"
            },
            {
              "internalType": "string",
              "name": "message",
              "type": "string"
            },
            {
              "internalType": "uint256",
              "name": "timestamp",
              "type": "uint256"
            }
          ],
          "internalType": "struct Greeting.Post[]",
          "name": "",
          "type": "tuple[]"
        }
      ],
      "stateMutability": "view",
      "type": "function"
    },
    {
      "inputs": [],
      "name": "getTotalPosts",
      "outputs": [
        {
          "internalType": "uint256",
          "name": "",
          "type": "uint256"
        }
      ],
      "stateMutability": "view",
      "type": "function"
    },
    {
      "inputs": [
        {
          "internalType": "address",
          "name": "",
          "type": "address"
        }
      ],
      "name": "lastPostedAt",
      "outputs": [
        {
          "internalType": "uint256",
          "name": "",
          "type": "uint256"
        }
      ],
      "stateMutability": "view",
      "type": "function"
    },
    {
      "inputs": [
        {
          "internalType": "string",
          "name": "_message",
          "type": "string"
        }
      ],
      "name": "post",
      "outputs": [],
      "stateMutability": "nonpayable",
      "type": "function"
    }
  ],
  "bytecode": "0x60806040526200004f6040518060400160405280601981526020017f57652068617665206265656e20636f6e737472756374656421000000000000008152506200007760201b620005fd1760201c565b606444426200005f91906200017c565b6200006b9190620001e6565b600181905550620002dc565b62000117816040516024016200008e9190620002b8565b6040516020818303038152906040527f41304fac000000000000000000000000000000000000000000000000000000007bffffffffffffffffffffffffffffffffffffffffffffffffffffffff19166020820180517bffffffffffffffffffffffffffffffffffffffffffffffffffffffff83818316178352505050506200011a60201b60201c565b50565b60008151905060006a636f6e736f6c652e6c6f679050602083016000808483855afa5050505050565b6000819050919050565b7f4e487b7100000000000000000000000000000000000000000000000000000000600052601160045260246000fd5b6000620001898262000143565b9150620001968362000143565b9250828201905080821115620001b157620001b06200014d565b5b92915050565b7f4e487b7100000000000000000000000000000000000000000000000000000000600052601260045260246000fd5b6000620001f38262000143565b9150620002008362000143565b925082620002135762000212620001b7565b5b828206905092915050565b600081519050919050565b600082825260208201905092915050565b60005b838110156200025a5780820151818401526020810190506200023d565b60008484015250505050565b6000601f19601f8301169050919050565b600062000284826200021e565b62000290818562000229565b9350620002a28185602086016200023a565b620002ad8162000266565b840191505092915050565b60006020820190508181036000830152620002d4818462000277565b905092915050565b61123c80620002ec6000396000f3fe608060405234801561001057600080fd5b506004361061004c5760003560e01c8063305611001461005157806351493c4f1461006f5780635fe226b41461009f5780638ee93cf3146100bd575b600080fd5b6100596100d9565b6040516100669190610957565b60405180910390f35b610089600480360381019061008491906109b9565b61022a565b60405161009691906109f5565b60405180910390f35b6100a7610242565b6040516100b491906109f5565b60405180910390f35b6100d760048036038101906100d29190610b45565b61024b565b005b60606002805480602002602001604051908101604052809291908181526020016000905b8282101561022157838290600052602060002090600302016040518060600160405290816000820160009054906101000a900473ffffffffffffffffffffffffffffffffffffffff1673ffffffffffffffffffffffffffffffffffffffff1673ffffffffffffffffffffffffffffffffffffffff16815260200160018201805461018690610bbd565b80601f01602080910402602001604051908101604052809291908181526020018280546101b290610bbd565b80156101ff5780601f106101d4576101008083540402835291602001916101ff565b820191906000526020600020905b8154815290600101906020018083116101e257829003601f168201915b50505050508152602001600282015481525050815260200190600101906100fd565b50505050905090565b60036020528060005260406000206000915090505481565b60008054905090565b42601e600360003373ffffffffffffffffffffffffffffffffffffffff1673ffffffffffffffffffffffffffffffffffffffff168152602001908152602001600020546102989190610c1d565b106102d8576040517f08c379a00000000000000000000000000000000000000000000000000000000081526004016102cf90610cd4565b60405180910390fd5b42600360003373ffffffffffffffffffffffffffffffffffffffff1673ffffffffffffffffffffffffffffffffffffffff16815260200190815260200160002081905550600160008082825461032e9190610c1d565b925050819055506103746040518060400160405280600d81526020017f257320686173207761766564210000000000000000000000000000000000000081525033610696565b600260405180606001604052803373ffffffffffffffffffffffffffffffffffffffff16815260200183815260200142815250908060018154018082558091505060019003906000526020600020906003020160009091909190915060008201518160000160006101000a81548173ffffffffffffffffffffffffffffffffffffffff021916908373ffffffffffffffffffffffffffffffffffffffff160217905550602082015181600101908161042c9190610ea0565b506040820151816002015550506064600154424461044a9190610c1d565b6104549190610c1d565b61045e9190610fa1565b6001819055506032600154116105aa576104ad6040518060400160405280600781526020017f257320776f6e210000000000000000000000000000000000000000000000000081525033610696565b6000655af3107a40009050478111156104fb576040517f08c379a00000000000000000000000000000000000000000000000000000000081526004016104f290611044565b60405180910390fd5b60003373ffffffffffffffffffffffffffffffffffffffff168260405161052190611095565b60006040518083038185875af1925050503d806000811461055e576040519150601f19603f3d011682016040523d82523d6000602084013e610563565b606091505b50509050806105a7576040517f08c379a000000000000000000000000000000000000000000000000000000000815260040161059e9061111c565b60405180910390fd5b50505b3373ffffffffffffffffffffffffffffffffffffffff167fd8c86c7877c3f1f8a40af6cf64a11fe867af887f2a1ad31aac849e36730425b042836040516105f2929190611175565b60405180910390a250565b6106938160405160240161061191906111a5565b6040516020818303038152906040527f41304fac000000000000000000000000000000000000000000000000000000007bffffffffffffffffffffffffffffffffffffffffffffffffffffffff19166020820180517bffffffffffffffffffffffffffffffffffffffffffffffffffffffff8381831617835250505050610732565b50565b61072e82826040516024016106ac9291906111d6565b6040516020818303038152906040527f319af333000000000000000000000000000000000000000000000000000000007bffffffffffffffffffffffffffffffffffffffffffffffffffffffff19166020820180517bffffffffffffffffffffffffffffffffffffffffffffffffffffffff8381831617835250505050610732565b5050565b60008151905060006a636f6e736f6c652e6c6f679050602083016000808483855afa5050505050565b600081519050919050565b600082825260208201905092915050565b6000819050602082019050919050565b600073ffffffffffffffffffffffffffffffffffffffff82169050919050565b60006107b282610787565b9050919050565b6107c2816107a7565b82525050565b600081519050919050565b600082825260208201905092915050565b60005b838110156108025780820151818401526020810190506107e7565b60008484015250505050565b6000601f19601f8301169050919050565b600061082a826107c8565b61083481856107d3565b93506108448185602086016107e4565b61084d8161080e565b840191505092915050565b6000819050919050565b61086b81610858565b82525050565b600060608301600083015161088960008601826107b9565b50602083015184820360208601526108a1828261081f565b91505060408301516108b66040860182610862565b508091505092915050565b60006108cd8383610871565b905092915050565b6000602082019050919050565b60006108ed8261075b565b6108f78185610766565b93508360208202850161090985610777565b8060005b85811015610945578484038952815161092685826108c1565b9450610931836108d5565b925060208a0199505060018101905061090d565b50829750879550505050505092915050565b6000602082019050818103600083015261097181846108e2565b905092915050565b6000604051905090565b600080fd5b600080fd5b610996816107a7565b81146109a157600080fd5b50565b6000813590506109b38161098d565b92915050565b6000602082840312156109cf576109ce610983565b5b60006109dd848285016109a4565b91505092915050565b6109ef81610858565b82525050565b6000602082019050610a0a60008301846109e6565b92915050565b600080fd5b600080fd5b7f4e487b7100000000000000000000000000000000000000000000000000000000600052604160045260246000fd5b610a528261080e565b810181811067ffffffffffffffff82111715610a7157610a70610a1a565b5b80604052505050565b6000610a84610979565b9050610a908282610a49565b919050565b600067ffffffffffffffff821115610ab057610aaf610a1a565b5b610ab98261080e565b9050602081019050919050565b82818337600083830152505050565b6000610ae8610ae384610a95565b610a7a565b905082815260208101848484011115610b0457610b03610a15565b5b610b0f848285610ac6565b509392505050565b600082601f830112610b2c57610b2b610a10565b5b8135610b3c848260208601610ad5565b91505092915050565b600060208284031215610b5b57610b5a610983565b5b600082013567ffffffffffffffff811115610b7957610b78610988565b5b610b8584828501610b17565b91505092915050565b7f4e487b7100000000000000000000000000000000000000000000000000000000600052602260045260246000fd5b60006002820490506001821680610bd557607f821691505b602082108103610be857610be7610b8e565b5b50919050565b7f4e487b7100000000000000000000000000000000000000000000000000000000600052601160045260246000fd5b6000610c2882610858565b9150610c3383610858565b9250828201905080821115610c4b57610c4a610bee565b5b92915050565b600082825260208201905092915050565b7f4d7573742077616974203330207365636f6e6473206265666f7265207761766960008201527f6e6720616761696e2e0000000000000000000000000000000000000000000000602082015250565b6000610cbe602983610c51565b9150610cc982610c62565b604082019050919050565b60006020820190508181036000830152610ced81610cb1565b9050919050565b60008190508160005260206000209050919050565b60006020601f8301049050919050565b600082821b905092915050565b600060088302610d567fffffffffffffffffffffffffffffffffffffffffffffffffffffffffffffffff82610d19565b610d608683610d19565b95508019841693508086168417925050509392505050565b6000819050919050565b6000610d9d610d98610d9384610858565b610d78565b610858565b9050919050565b6000819050919050565b610db783610d82565b610dcb610dc382610da4565b848454610d26565b825550505050565b600090565b610de0610dd3565b610deb818484610dae565b505050565b5b81811015610e0f57610e04600082610dd8565b600181019050610df1565b5050565b601f821115610e5457610e2581610cf4565b610e2e84610d09565b81016020851015610e3d578190505b610e51610e4985610d09565b830182610df0565b50505b505050565b600082821c905092915050565b6000610e7760001984600802610e59565b1980831691505092915050565b6000610e908383610e66565b9150826002028217905092915050565b610ea9826107c8565b67ffffffffffffffff811115610ec257610ec1610a1a565b5b610ecc8254610bbd565b610ed7828285610e13565b600060209050601f831160018114610f0a5760008415610ef8578287015190505b610f028582610e84565b865550610f6a565b601f198416610f1886610cf4565b60005b82811015610f4057848901518255600182019150602085019450602081019050610f1b565b86831015610f5d5784890151610f59601f891682610e66565b8355505b6001600288020188555050505b505050505050565b7f4e487b7100000000000000000000000000000000000000000000000000000000600052601260045260246000fd5b6000610fac82610858565b9150610fb783610858565b925082610fc757610fc6610f72565b5b828206905092915050565b7f547279696e6720746f207769746864726177206d6f7265206d6f6e657920746860008201527f616e207468657920636f6e7472616374206861732e0000000000000000000000602082015250565b600061102e603583610c51565b915061103982610fd2565b604082019050919050565b6000602082019050818103600083015261105d81611021565b9050919050565b600081905092915050565b50565b600061107f600083611064565b915061108a8261106f565b600082019050919050565b60006110a082611072565b9150819050919050565b7f4661696c656420746f207769746864726177206d6f6e65792066726f6d20636f60008201527f6e74726163742e00000000000000000000000000000000000000000000000000602082015250565b6000611106602783610c51565b9150611111826110aa565b604082019050919050565b60006020820190508181036000830152611135816110f9565b9050919050565b6000611147826107c8565b6111518185610c51565b93506111618185602086016107e4565b61116a8161080e565b840191505092915050565b600060408201905061118a60008301856109e6565b818103602083015261119c818461113c565b90509392505050565b600060208201905081810360008301526111bf818461113c565b905092915050565b6111d0816107a7565b82525050565b600060408201905081810360008301526111f0818561113c565b90506111ff60208301846111c7565b939250505056fea264697066735822122023a175eb2a4204eaee0ed3a320f18e850bfd5c3c23e913b9807457826779f2df64736f6c63430008110033",
  "linkReferences": {},
  "deployedLinkReferences": {}
}